{
  "contractName": "loyalty",
  "abi": [
    {
      "anonymous": false,
      "inputs": [
        {
          "indexed": false,
          "name": "from",
          "type": "address"
        },
        {
          "indexed": false,
          "name": "to",
          "type": "address"
        },
        {
          "indexed": false,
          "name": "amount",
          "type": "uint256"
        }
      ],
      "name": "Transfer",
      "type": "event",
      "signature": "0xddf252ad1be2c89b69c2b068fc378daa952ba7f163c4a11628f55a4df523b3ef"
    },
    {
      "anonymous": false,
      "inputs": [
        {
          "indexed": false,
          "name": "from",
          "type": "address"
        },
        {
          "indexed": false,
          "name": "new_perc",
          "type": "uint256"
        },
        {
          "indexed": false,
          "name": "msg",
          "type": "string"
        }
      ],
      "name": "UpdatePerc",
      "type": "event",
      "signature": "0xff9df892f135979a9dbf3e99b5924d0277dfdc5b885bd454e971d0d6152fa9b2"
    },
    {
      "constant": false,
      "inputs": [
        {
          "name": "lpPK",
          "type": "address"
        },
        {
          "name": "curr_perc",
          "type": "uint256"
        }
      ],
      "name": "create_lp",
      "outputs": [],
      "payable": false,
      "stateMutability": "nonpayable",
      "type": "function",
      "signature": "0x5a4e7627"
    },
    {
      "constant": false,
      "inputs": [
        {
          "name": "_userPK",
          "type": "address"
        }
      ],
      "name": "create_user",
      "outputs": [],
      "payable": false,
      "stateMutability": "nonpayable",
      "type": "function",
      "signature": "0x6f600840"
    },
    {
      "constant": false,
      "inputs": [
        {
          "name": "hcPK",
          "type": "address"
        }
      ],
      "name": "create_hc",
      "outputs": [],
      "payable": false,
      "stateMutability": "nonpayable",
      "type": "function",
      "signature": "0xfd490dc0"
    },
    {
      "constant": false,
      "inputs": [
        {
          "name": "fpPK",
          "type": "address"
        }
      ],
      "name": "create_fp",
      "outputs": [],
      "payable": false,
      "stateMutability": "nonpayable",
      "type": "function",
      "signature": "0xc70854fa"
    },
    {
      "constant": true,
      "inputs": [
        {
          "name": "lpPK",
          "type": "address"
        }
      ],
      "name": "get_lp_profile_perc",
      "outputs": [
        {
          "name": "",
          "type": "uint256"
        }
      ],
      "payable": false,
      "stateMutability": "view",
      "type": "function",
      "signature": "0x7b8889e3"
    },
    {
      "constant": true,
      "inputs": [
        {
          "name": "lpPK",
          "type": "address"
        }
      ],
      "name": "get_lp_profile_created",
      "outputs": [
        {
          "name": "",
          "type": "uint256"
        }
      ],
      "payable": false,
      "stateMutability": "view",
      "type": "function",
      "signature": "0x7f91c8d0"
    },
    {
      "constant": true,
      "inputs": [
        {
          "name": "lpPK",
          "type": "address"
        }
      ],
      "name": "get_lp_profile_paid",
      "outputs": [
        {
          "name": "",
          "type": "uint256"
        }
      ],
      "payable": false,
      "stateMutability": "view",
      "type": "function",
      "signature": "0x48231472"
    },
    {
      "constant": true,
      "inputs": [
        {
          "name": "userPK",
          "type": "address"
        }
      ],
      "name": "get_user_loyalty_recv",
      "outputs": [
        {
          "name": "",
          "type": "uint256"
        }
      ],
      "payable": false,
      "stateMutability": "view",
      "type": "function",
      "signature": "0xe6937361"
    },
    {
      "constant": true,
      "inputs": [
        {
          "name": "userPK",
          "type": "address"
        }
      ],
      "name": "get_user_loyalty_spent",
      "outputs": [
        {
          "name": "",
          "type": "uint256"
        }
      ],
      "payable": false,
      "stateMutability": "view",
      "type": "function",
      "signature": "0xe7013637"
    },
    {
      "constant": true,
      "inputs": [
        {
          "name": "hcPK",
          "type": "address"
        }
      ],
      "name": "get_hc_loyalty_recv",
      "outputs": [
        {
          "name": "",
          "type": "uint256"
        }
      ],
      "payable": false,
      "stateMutability": "view",
      "type": "function",
      "signature": "0x255a2644"
    },
    {
      "constant": true,
      "inputs": [
        {
          "name": "hcPK",
          "type": "address"
        }
      ],
      "name": "get_hc_loyalty_spent",
      "outputs": [
        {
          "name": "",
          "type": "uint256"
        }
      ],
      "payable": false,
      "stateMutability": "view",
      "type": "function",
      "signature": "0xcf7b4be3"
    },
    {
      "constant": true,
      "inputs": [
        {
          "name": "hcPK",
          "type": "address"
        }
      ],
      "name": "get_hc_meal_purchased",
      "outputs": [
        {
          "name": "",
          "type": "uint256"
        }
      ],
      "payable": false,
      "stateMutability": "view",
      "type": "function",
      "signature": "0x4e170cdb"
    },
    {
      "constant": true,
      "inputs": [
        {
          "name": "fpPK",
          "type": "address"
        }
      ],
      "name": "get_fp_curr_loyalty",
      "outputs": [
        {
          "name": "",
          "type": "uint256"
        }
      ],
      "payable": false,
      "stateMutability": "view",
      "type": "function",
      "signature": "0xa05cab76"
    },
    {
      "constant": false,
      "inputs": [
        {
          "name": "new_perc",
          "type": "uint256"
        }
      ],
      "name": "update_lp_perc",
      "outputs": [],
      "payable": false,
      "stateMutability": "nonpayable",
      "type": "function",
      "signature": "0xdcb5b768"
    },
    {
      "constant": false,
      "inputs": [
        {
          "name": "userPK",
          "type": "address"
        },
        {
          "name": "receipt_id",
          "type": "string"
        },
        {
          "name": "receipt_price",
          "type": "uint256"
        }
      ],
      "name": "lp2user",
      "outputs": [],
      "payable": false,
      "stateMutability": "nonpayable",
      "type": "function",
      "signature": "0x25b9c280"
    },
    {
      "constant": false,
      "inputs": [
        {
          "name": "hcPK",
          "type": "address"
        },
        {
          "name": "amount",
          "type": "uint256"
        }
      ],
      "name": "user2hc",
      "outputs": [],
      "payable": false,
      "stateMutability": "nonpayable",
      "type": "function",
      "signature": "0xaca96dfc"
    },
    {
      "constant": false,
      "inputs": [
        {
          "name": "fpPK",
          "type": "address"
        },
        {
          "name": "order_id",
          "type": "uint256"
        },
        {
          "name": "amount",
          "type": "uint256"
        }
      ],
      "name": "hc2fp",
      "outputs": [],
      "payable": false,
      "stateMutability": "nonpayable",
      "type": "function",
      "signature": "0x394e1490"
    },
    {
      "constant": false,
      "inputs": [
        {
          "name": "lpPK",
          "type": "address"
        },
        {
          "name": "amount",
          "type": "uint256"
        }
      ],
      "name": "fp2lp",
      "outputs": [],
      "payable": false,
      "stateMutability": "nonpayable",
      "type": "function",
      "signature": "0xd4a03a8e"
    }
  ],
  "bytecode": "0x608060405234801561001057600080fd5b50611977806100206000396000f3fe6080604052600436106100fc576000357c0100000000000000000000000000000000000000000000000000000000900463ffffffff168063255a26441461010157806325b9c28014610166578063394e14901461025857806348231472146102bd5780634e170cdb146103225780635a4e7627146103875780636f600840146103e25780637b8889e3146104335780637f91c8d014610498578063a05cab76146104fd578063aca96dfc14610562578063c70854fa146105bd578063cf7b4be31461060e578063d4a03a8e14610673578063dcb5b768146106ce578063e693736114610709578063e70136371461076e578063fd490dc0146107d3575b600080fd5b34801561010d57600080fd5b506101506004803603602081101561012457600080fd5b81019080803573ffffffffffffffffffffffffffffffffffffffff169060200190929190505050610824565b6040518082815260200191505060405180910390f35b34801561017257600080fd5b506102566004803603606081101561018957600080fd5b81019080803573ffffffffffffffffffffffffffffffffffffffff169060200190929190803590602001906401000000008111156101c657600080fd5b8201836020820111156101d857600080fd5b803590602001918460018302840111640100000000831117156101fa57600080fd5b91908080601f016020809104026020016040519081016040528093929190818152602001838380828437600081840152601f19601f82011690508083019250505050505050919291929080359060200190929190505050610870565b005b34801561026457600080fd5b506102bb6004803603606081101561027b57600080fd5b81019080803573ffffffffffffffffffffffffffffffffffffffff1690602001909291908035906020019092919080359060200190929190505050610a85565b005b3480156102c957600080fd5b5061030c600480360360208110156102e057600080fd5b81019080803573ffffffffffffffffffffffffffffffffffffffff169060200190929190505050610c9b565b6040518082815260200191505060405180910390f35b34801561032e57600080fd5b506103716004803603602081101561034557600080fd5b81019080803573ffffffffffffffffffffffffffffffffffffffff169060200190929190505050610ce7565b6040518082815260200191505060405180910390f35b34801561039357600080fd5b506103e0600480360360408110156103aa57600080fd5b81019080803573ffffffffffffffffffffffffffffffffffffffff16906020019092919080359060200190929190505050610d33565b005b3480156103ee57600080fd5b506104316004803603602081101561040557600080fd5b81019080803573ffffffffffffffffffffffffffffffffffffffff169060200190929190505050610e65565b005b34801561043f57600080fd5b506104826004803603602081101561045657600080fd5b81019080803573ffffffffffffffffffffffffffffffffffffffff169060200190929190505050610f50565b6040518082815260200191505060405180910390f35b3480156104a457600080fd5b506104e7600480360360208110156104bb57600080fd5b81019080803573ffffffffffffffffffffffffffffffffffffffff169060200190929190505050610f9c565b6040518082815260200191505060405180910390f35b34801561050957600080fd5b5061054c6004803603602081101561052057600080fd5b81019080803573ffffffffffffffffffffffffffffffffffffffff169060200190929190505050610fe8565b6040518082815260200191505060405180910390f35b34801561056e57600080fd5b506105bb6004803603604081101561058557600080fd5b81019080803573ffffffffffffffffffffffffffffffffffffffff16906020019092919080359060200190929190505050611034565b005b3480156105c957600080fd5b5061060c600480360360208110156105e057600080fd5b81019080803573ffffffffffffffffffffffffffffffffffffffff1690602001909291905050506112e1565b005b34801561061a57600080fd5b5061065d6004803603602081101561063157600080fd5b81019080803573ffffffffffffffffffffffffffffffffffffffff169060200190929190505050611384565b6040518082815260200191505060405180910390f35b34801561067f57600080fd5b506106cc6004803603604081101561069657600080fd5b81019080803573ffffffffffffffffffffffffffffffffffffffff169060200190929190803590602001909291905050506113d0565b005b3480156106da57600080fd5b50610707600480360360208110156106f157600080fd5b8101908080359060200190929190505050611632565b005b34801561071557600080fd5b506107586004803603602081101561072c57600080fd5b81019080803573ffffffffffffffffffffffffffffffffffffffff169060200190929190505050611780565b6040518082815260200191505060405180910390f35b34801561077a57600080fd5b506107bd6004803603602081101561079157600080fd5b81019080803573ffffffffffffffffffffffffffffffffffffffff1690602001909291905050506117cc565b6040518082815260200191505060405180910390f35b3480156107df57600080fd5b50610822600480360360208110156107f657600080fd5b81019080803573ffffffffffffffffffffffffffffffffffffffff169060200190929190505050611818565b005b6000600560008373ffffffffffffffffffffffffffffffffffffffff1673ffffffffffffffffffffffffffffffffffffffff168152602001908152602001600020600001549050919050565b33600115156000808373ffffffffffffffffffffffffffffffffffffffff1673ffffffffffffffffffffffffffffffffffffffff16815260200190815260200160002060009054906101000a900460ff1615151415156108cf57600080fd5b8360011515600260008373ffffffffffffffffffffffffffffffffffffffff1673ffffffffffffffffffffffffffffffffffffffff16815260200190815260200160002060009054906101000a900460ff16151514151561092f57600080fd5b6000831415151561093f57600080fd5b82600160003373ffffffffffffffffffffffffffffffffffffffff1673ffffffffffffffffffffffffffffffffffffffff1681526020019081526020016000206001016000828254019250508190555082600360008773ffffffffffffffffffffffffffffffffffffffff1673ffffffffffffffffffffffffffffffffffffffff168152602001908152602001600020600001600082825401925050819055507fddf252ad1be2c89b69c2b068fc378daa952ba7f163c4a11628f55a4df523b3ef338685604051808473ffffffffffffffffffffffffffffffffffffffff1673ffffffffffffffffffffffffffffffffffffffff1681526020018373ffffffffffffffffffffffffffffffffffffffff1673ffffffffffffffffffffffffffffffffffffffff168152602001828152602001935050505060405180910390a15050505050565b3360011515600460008373ffffffffffffffffffffffffffffffffffffffff1673ffffffffffffffffffffffffffffffffffffffff16815260200190815260200160002060009054906101000a900460ff161515141515610ae557600080fd5b8360011515600660008373ffffffffffffffffffffffffffffffffffffffff1673ffffffffffffffffffffffffffffffffffffffff16815260200190815260200160002060009054906101000a900460ff161515141515610b4557600080fd5b60008314151515610b5557600080fd5b82600560003373ffffffffffffffffffffffffffffffffffffffff1673ffffffffffffffffffffffffffffffffffffffff1681526020019081526020016000206001016000828254019250508190555082600760008773ffffffffffffffffffffffffffffffffffffffff1673ffffffffffffffffffffffffffffffffffffffff168152602001908152602001600020600001600082825401925050819055507fddf252ad1be2c89b69c2b068fc378daa952ba7f163c4a11628f55a4df523b3ef338685604051808473ffffffffffffffffffffffffffffffffffffffff1673ffffffffffffffffffffffffffffffffffffffff1681526020018373ffffffffffffffffffffffffffffffffffffffff1673ffffffffffffffffffffffffffffffffffffffff168152602001828152602001935050505060405180910390a15050505050565b6000600160008373ffffffffffffffffffffffffffffffffffffffff1673ffffffffffffffffffffffffffffffffffffffff168152602001908152602001600020600201549050919050565b6000600560008373ffffffffffffffffffffffffffffffffffffffff1673ffffffffffffffffffffffffffffffffffffffff168152602001908152602001600020600201549050919050565b60016000808473ffffffffffffffffffffffffffffffffffffffff1673ffffffffffffffffffffffffffffffffffffffff16815260200190815260200160002060006101000a81548160ff02191690831515021790555080600160008473ffffffffffffffffffffffffffffffffffffffff1673ffffffffffffffffffffffffffffffffffffffff168152602001908152602001600020600001819055506000600160008473ffffffffffffffffffffffffffffffffffffffff1673ffffffffffffffffffffffffffffffffffffffff168152602001908152602001600020600101819055506000600160008473ffffffffffffffffffffffffffffffffffffffff1673ffffffffffffffffffffffffffffffffffffffff168152602001908152602001600020600201819055505050565b6001600260008373ffffffffffffffffffffffffffffffffffffffff1673ffffffffffffffffffffffffffffffffffffffff16815260200190815260200160002060006101000a81548160ff0219169083151502179055506000600360008373ffffffffffffffffffffffffffffffffffffffff1673ffffffffffffffffffffffffffffffffffffffff168152602001908152602001600020600001819055506000600360008373ffffffffffffffffffffffffffffffffffffffff1673ffffffffffffffffffffffffffffffffffffffff1681526020019081526020016000206001018190555050565b6000600160008373ffffffffffffffffffffffffffffffffffffffff1673ffffffffffffffffffffffffffffffffffffffff168152602001908152602001600020600001549050919050565b6000600160008373ffffffffffffffffffffffffffffffffffffffff1673ffffffffffffffffffffffffffffffffffffffff168152602001908152602001600020600101549050919050565b6000600760008373ffffffffffffffffffffffffffffffffffffffff1673ffffffffffffffffffffffffffffffffffffffff168152602001908152602001600020600001549050919050565b3360011515600260008373ffffffffffffffffffffffffffffffffffffffff1673ffffffffffffffffffffffffffffffffffffffff16815260200190815260200160002060009054906101000a900460ff16151514151561109457600080fd5b8260011515600460008373ffffffffffffffffffffffffffffffffffffffff1673ffffffffffffffffffffffffffffffffffffffff16815260200190815260200160002060009054906101000a900460ff1615151415156110f457600080fd5b6000600360003373ffffffffffffffffffffffffffffffffffffffff1673ffffffffffffffffffffffffffffffffffffffff16815260200190815260200160002060010154600360003373ffffffffffffffffffffffffffffffffffffffff1673ffffffffffffffffffffffffffffffffffffffff16815260200190815260200160002060000154039050600084141580156111905750838110155b151561119b57600080fd5b83600360003373ffffffffffffffffffffffffffffffffffffffff1673ffffffffffffffffffffffffffffffffffffffff1681526020019081526020016000206001016000828254019250508190555083600560008773ffffffffffffffffffffffffffffffffffffffff1673ffffffffffffffffffffffffffffffffffffffff168152602001908152602001600020600001600082825401925050819055507fddf252ad1be2c89b69c2b068fc378daa952ba7f163c4a11628f55a4df523b3ef338686604051808473ffffffffffffffffffffffffffffffffffffffff1673ffffffffffffffffffffffffffffffffffffffff1681526020018373ffffffffffffffffffffffffffffffffffffffff1673ffffffffffffffffffffffffffffffffffffffff168152602001828152602001935050505060405180910390a15050505050565b6001600660008373ffffffffffffffffffffffffffffffffffffffff1673ffffffffffffffffffffffffffffffffffffffff16815260200190815260200160002060006101000a81548160ff0219169083151502179055506000600760008373ffffffffffffffffffffffffffffffffffffffff1673ffffffffffffffffffffffffffffffffffffffff1681526020019081526020016000206000018190555050565b6000600560008373ffffffffffffffffffffffffffffffffffffffff1673ffffffffffffffffffffffffffffffffffffffff168152602001908152602001600020600101549050919050565b3360011515600660008373ffffffffffffffffffffffffffffffffffffffff1673ffffffffffffffffffffffffffffffffffffffff16815260200190815260200160002060009054906101000a900460ff16151514151561143057600080fd5b82600115156000808373ffffffffffffffffffffffffffffffffffffffff1673ffffffffffffffffffffffffffffffffffffffff16815260200190815260200160002060009054906101000a900460ff16151514151561148f57600080fd5b600083141580156114e2575082600760003373ffffffffffffffffffffffffffffffffffffffff1673ffffffffffffffffffffffffffffffffffffffff1681526020019081526020016000206000015410155b15156114ed57600080fd5b82600760003373ffffffffffffffffffffffffffffffffffffffff1673ffffffffffffffffffffffffffffffffffffffff1681526020019081526020016000206000016000828254039250508190555082600160008673ffffffffffffffffffffffffffffffffffffffff1673ffffffffffffffffffffffffffffffffffffffff168152602001908152602001600020600201600082825401925050819055507fddf252ad1be2c89b69c2b068fc378daa952ba7f163c4a11628f55a4df523b3ef338585604051808473ffffffffffffffffffffffffffffffffffffffff1673ffffffffffffffffffffffffffffffffffffffff1681526020018373ffffffffffffffffffffffffffffffffffffffff1673ffffffffffffffffffffffffffffffffffffffff168152602001828152602001935050505060405180910390a150505050565b33600115156000808373ffffffffffffffffffffffffffffffffffffffff1673ffffffffffffffffffffffffffffffffffffffff16815260200190815260200160002060009054906101000a900460ff16151514151561169157600080fd5b81600160003373ffffffffffffffffffffffffffffffffffffffff1673ffffffffffffffffffffffffffffffffffffffff168152602001908152602001600020600001819055507fff9df892f135979a9dbf3e99b5924d0277dfdc5b885bd454e971d0d6152fa9b23383604051808373ffffffffffffffffffffffffffffffffffffffff1673ffffffffffffffffffffffffffffffffffffffff16815260200182815260200180602001828103825260108152602001807f55706461746520637572725f7065726300000000000000000000000000000000815250602001935050505060405180910390a15050565b6000600360008373ffffffffffffffffffffffffffffffffffffffff1673ffffffffffffffffffffffffffffffffffffffff168152602001908152602001600020600001549050919050565b6000600360008373ffffffffffffffffffffffffffffffffffffffff1673ffffffffffffffffffffffffffffffffffffffff168152602001908152602001600020600101549050919050565b6001600460008373ffffffffffffffffffffffffffffffffffffffff1673ffffffffffffffffffffffffffffffffffffffff16815260200190815260200160002060006101000a81548160ff0219169083151502179055506000600560008373ffffffffffffffffffffffffffffffffffffffff1673ffffffffffffffffffffffffffffffffffffffff168152602001908152602001600020600101819055506000600560008373ffffffffffffffffffffffffffffffffffffffff1673ffffffffffffffffffffffffffffffffffffffff168152602001908152602001600020600001819055506000600560008373ffffffffffffffffffffffffffffffffffffffff1673ffffffffffffffffffffffffffffffffffffffff168152602001908152602001600020600201819055505056fea165627a7a72305820ccd5f01e61b3122910e0e164eecdd45159b54c50079e44d16ecc086931e341f90029",
  "source": "pragma solidity >=0.4.21 <0.6.0;\r\n\r\ncontract loyalty {\r\n\r\n    struct loyaltyProviderProfile{\r\n        uint curr_perc;\r\n        uint loyalty_created;\r\n        uint loyalty_paid;\r\n    }\r\n\r\n    struct userProfile{\r\n        uint loyalty_rec;\r\n        uint loyalty_spent;\r\n    }\r\n\r\n    struct hungerCenterProfile{\r\n        uint loyalty_recv;\r\n        uint loyalty_spent;\r\n        uint meal_purchased;\r\n    }\r\n\r\n    struct foodProviderProfile{\r\n        uint curr_loyalty;\r\n    }\r\n\r\n    mapping (address => bool) loyaltyProvider;\r\n    mapping (address => loyaltyProviderProfile) lpProfile;\r\n\r\n    mapping (address => bool) user;\r\n    mapping (address => userProfile) userprofile;\r\n\r\n    mapping (address => bool) hungerCenter;\r\n    mapping (address => hungerCenterProfile) hcProfile;\r\n\r\n    mapping (address => bool) foodProvider;\r\n    mapping (address => foodProviderProfile) fpProfile;\r\n\r\n    event Transfer(address from , address to , uint amount);\r\n    event UpdatePerc(address from , uint new_perc , string msg);\r\n\r\n    modifier onlyLP(address lpPK){\r\n        require(loyaltyProvider[lpPK] == true);\r\n        _;\r\n    }\r\n\r\n    modifier onlyUser(address _userPK){\r\n        require(user[_userPK] == true);\r\n        _;\r\n    }\r\n\r\n    modifier onlyHC(address hcPK){\r\n        require(hungerCenter[hcPK] == true);\r\n        _;\r\n    }\r\n\r\n    modifier onlyFP(address _fpPK){\r\n        require(foodProvider[_fpPK] == true);\r\n        _;\r\n    }\r\n\r\n    //who creates LP?\r\n    function create_lp(address lpPK, uint curr_perc ) public{\r\n        loyaltyProvider[lpPK] = true;\r\n        lpProfile[lpPK].curr_perc = curr_perc;\r\n        lpProfile[lpPK].loyalty_created = 0;\r\n        lpProfile[lpPK].loyalty_paid = 0;\r\n    }\r\n\r\n    function create_user(address _userPK) public{\r\n        user[_userPK] = true;\r\n        userprofile[_userPK].loyalty_rec = 0;\r\n        userprofile[_userPK].loyalty_spent = 0;\r\n    }\r\n\r\n    function create_hc(address hcPK) public{\r\n        hungerCenter[hcPK] = true;\r\n        hcProfile[hcPK].loyalty_spent = 0;\r\n        hcProfile[hcPK].loyalty_recv = 0;\r\n        hcProfile[hcPK].meal_purchased = 0;\r\n    }\r\n\r\n    function create_fp(address fpPK) public{\r\n        foodProvider[fpPK] = true;\r\n        fpProfile[fpPK].curr_loyalty = 0;\r\n    }\r\n\r\n    function get_lp_profile_perc(address lpPK) public view returns(uint){\r\n        return lpProfile[lpPK].curr_perc;\r\n    }\r\n\r\n    function get_lp_profile_created(address lpPK) public view returns(uint){\r\n        return lpProfile[lpPK].loyalty_created;\r\n    }\r\n\r\n    function get_lp_profile_paid(address lpPK) public view returns(uint){\r\n        return lpProfile[lpPK].loyalty_paid;\r\n    }\r\n\r\n    function get_user_loyalty_recv(address userPK) public view returns(uint){\r\n        return userprofile[userPK].loyalty_rec;\r\n    }\r\n\r\n    function get_user_loyalty_spent(address userPK) public view returns(uint){\r\n        return userprofile[userPK].loyalty_spent;\r\n    }\r\n\r\n    function get_hc_loyalty_recv(address hcPK) public view returns(uint){\r\n        return hcProfile[hcPK].loyalty_recv;\r\n    }\r\n\r\n    function get_hc_loyalty_spent(address hcPK) public view returns(uint){\r\n        return hcProfile[hcPK].loyalty_spent;\r\n    }\r\n\r\n    function get_hc_meal_purchased(address hcPK) public view returns(uint){\r\n        return hcProfile[hcPK].meal_purchased;\r\n    }\r\n\r\n    function get_fp_curr_loyalty(address fpPK) public view returns(uint){\r\n        return fpProfile[fpPK].curr_loyalty;\r\n    }\r\n\r\n    function update_lp_perc(uint new_perc) public onlyLP(msg.sender){\r\n        lpProfile[msg.sender].curr_perc = new_perc;\r\n\r\n        emit UpdatePerc(msg.sender, new_perc , \"Update curr_perc\");\r\n    }\r\n\r\n    function lp2user(address userPK , string memory receipt_id, uint receipt_price ) public onlyLP(msg.sender) onlyUser(userPK){\r\n        require(receipt_price != 0);\r\n        lpProfile[msg.sender].loyalty_created += receipt_price;\r\n        userprofile[userPK].loyalty_rec += receipt_price;\r\n\r\n        emit Transfer(msg.sender , userPK , receipt_price);\r\n    }\r\n\r\n    function user2hc(address hcPK , uint amount) public onlyUser(msg.sender) onlyHC(hcPK){\r\n        uint curr = userprofile[msg.sender].loyalty_rec - userprofile[msg.sender].loyalty_spent;\r\n        require( amount != 0 && curr >= amount);\r\n        userprofile[msg.sender].loyalty_spent += amount;\r\n        hcProfile[hcPK].loyalty_recv += amount;\r\n\r\n        emit Transfer(msg.sender , hcPK , amount);\r\n    }\r\n\r\n    function hc2fp(address fpPK , uint order_id , uint amount ) public onlyHC(msg.sender) onlyFP(fpPK){\r\n        require(amount != 0);\r\n        hcProfile[msg.sender].loyalty_spent += amount;\r\n        fpProfile[fpPK].curr_loyalty += amount;\r\n\r\n        emit Transfer(msg.sender,fpPK , amount);\r\n    }\r\n\r\n    function fp2lp(address lpPK , uint amount)public onlyFP(msg.sender) onlyLP(lpPK){\r\n        require(amount != 0 && fpProfile[msg.sender].curr_loyalty >= amount);\r\n        fpProfile[msg.sender].curr_loyalty -= amount;\r\n        lpProfile[lpPK].loyalty_paid += amount;\r\n\r\n        emit Transfer(msg.sender , lpPK , amount);\r\n    }\r\n\r\n\r\n}\r\n",
  "sourcePath": "E:/Code Work/riseup/foodarchy/dapp/contracts/loyalty.sol",
  "compiler": {
    "name": "solc",
    "version": "0.5.0+commit.1d4f565a.Emscripten.clang"
  },
  "schemaVersion": "3.0.6",
  "updatedAt": "2019-04-19T13:30:24.561Z",
  "devdoc": {
    "methods": {}
  },
  "userdoc": {
    "methods": {}
  }
}