{
  "contractName": "loyalty",
  "abi": [
    {
      "anonymous": false,
      "inputs": [
        {
          "indexed": false,
          "name": "from",
          "type": "address"
        },
        {
          "indexed": false,
          "name": "to",
          "type": "address"
        },
        {
          "indexed": false,
          "name": "amount",
          "type": "uint256"
        }
      ],
      "name": "Transfer",
      "type": "event",
      "signature": "0xddf252ad1be2c89b69c2b068fc378daa952ba7f163c4a11628f55a4df523b3ef"
    },
    {
      "constant": true,
      "inputs": [
        {
          "name": "lpPK",
          "type": "address"
        }
      ],
      "name": "get_lp_profile_perc",
      "outputs": [
        {
          "name": "",
          "type": "uint256"
        }
      ],
      "payable": false,
      "stateMutability": "view",
      "type": "function",
      "signature": "0x7b8889e3"
    },
    {
      "constant": true,
      "inputs": [
        {
          "name": "lpPK",
          "type": "address"
        }
      ],
      "name": "get_lp_profile_created",
      "outputs": [
        {
          "name": "",
          "type": "uint256"
        }
      ],
      "payable": false,
      "stateMutability": "view",
      "type": "function",
      "signature": "0x7f91c8d0"
    },
    {
      "constant": true,
      "inputs": [
        {
          "name": "lpPK",
          "type": "address"
        }
      ],
      "name": "get_lp_profile_paid",
      "outputs": [
        {
          "name": "",
          "type": "uint256"
        }
      ],
      "payable": false,
      "stateMutability": "view",
      "type": "function",
      "signature": "0x48231472"
    },
    {
      "constant": true,
      "inputs": [
        {
          "name": "userPK",
          "type": "address"
        }
      ],
      "name": "get_user_loyalty_recv",
      "outputs": [
        {
          "name": "",
          "type": "uint256"
        }
      ],
      "payable": false,
      "stateMutability": "view",
      "type": "function",
      "signature": "0xe6937361"
    },
    {
      "constant": true,
      "inputs": [
        {
          "name": "userPK",
          "type": "address"
        }
      ],
      "name": "get_user_loyalty_spent",
      "outputs": [
        {
          "name": "",
          "type": "uint256"
        }
      ],
      "payable": false,
      "stateMutability": "view",
      "type": "function",
      "signature": "0xe7013637"
    },
    {
      "constant": true,
      "inputs": [],
      "name": "get_hc_loyalty_recv",
      "outputs": [
        {
          "name": "",
          "type": "uint256"
        }
      ],
      "payable": false,
      "stateMutability": "view",
      "type": "function",
      "signature": "0xe89e29c0"
    },
    {
      "constant": true,
      "inputs": [
        {
          "name": "hcPK",
          "type": "address"
        }
      ],
      "name": "get_hc_loyalty_spent",
      "outputs": [
        {
          "name": "",
          "type": "uint256"
        }
      ],
      "payable": false,
      "stateMutability": "view",
      "type": "function",
      "signature": "0xcf7b4be3"
    },
    {
      "constant": true,
      "inputs": [
        {
          "name": "fpPK",
          "type": "address"
        }
      ],
      "name": "get_fp_curr_loyalty",
      "outputs": [
        {
          "name": "",
          "type": "uint256"
        }
      ],
      "payable": false,
      "stateMutability": "view",
      "type": "function",
      "signature": "0xa05cab76"
    },
    {
      "constant": false,
      "inputs": [
        {
          "name": "userPK",
          "type": "address"
        },
        {
          "name": "receipt_price",
          "type": "uint256"
        }
      ],
      "name": "lp2user",
      "outputs": [],
      "payable": false,
      "stateMutability": "nonpayable",
      "type": "function",
      "signature": "0xc514b022"
    },
    {
      "constant": false,
      "inputs": [
        {
          "name": "hcPK",
          "type": "address"
        },
        {
          "name": "amount",
          "type": "uint256"
        }
      ],
      "name": "user2hc",
      "outputs": [],
      "payable": false,
      "stateMutability": "nonpayable",
      "type": "function",
      "signature": "0xaca96dfc"
    },
    {
      "constant": false,
      "inputs": [
        {
          "name": "fpPK",
          "type": "address"
        },
        {
          "name": "amount",
          "type": "uint256"
        }
      ],
      "name": "hc2fp",
      "outputs": [],
      "payable": false,
      "stateMutability": "nonpayable",
      "type": "function",
      "signature": "0xf9d04b3c"
    },
    {
      "constant": false,
      "inputs": [
        {
          "name": "lpPK",
          "type": "address"
        },
        {
          "name": "amount",
          "type": "uint256"
        }
      ],
      "name": "fp2lp",
      "outputs": [],
      "payable": false,
      "stateMutability": "nonpayable",
      "type": "function",
      "signature": "0xd4a03a8e"
    }
  ],
  "bytecode": "0x608060405234801561001057600080fd5b50610660806100206000396000f3fe6080604052600436106100b95763ffffffff7c01000000000000000000000000000000000000000000000000000000006000350416634823147281146100be5780637b8889e3146101035780637f91c8d014610136578063a05cab7614610169578063aca96dfc1461019c578063c514b022146101d7578063cf7b4be314610210578063d4a03a8e14610243578063e69373611461027c578063e7013637146102af578063e89e29c0146102e2578063f9d04b3c146102f7575b600080fd5b3480156100ca57600080fd5b506100f1600480360360208110156100e157600080fd5b5035600160a060020a0316610330565b60408051918252519081900360200190f35b34801561010f57600080fd5b506100f16004803603602081101561012657600080fd5b5035600160a060020a031661034e565b34801561014257600080fd5b506100f16004803603602081101561015957600080fd5b5035600160a060020a0316610369565b34801561017557600080fd5b506100f16004803603602081101561018c57600080fd5b5035600160a060020a0316610387565b3480156101a857600080fd5b506101d5600480360360408110156101bf57600080fd5b50600160a060020a0381351690602001356103a2565b005b3480156101e357600080fd5b506101d5600480360360408110156101fa57600080fd5b50600160a060020a03813516906020013561043a565b34801561021c57600080fd5b506100f16004803603602081101561023357600080fd5b5035600160a060020a03166104aa565b34801561024f57600080fd5b506101d56004803603604081101561026657600080fd5b50600160a060020a0381351690602001356104c8565b34801561028857600080fd5b506100f16004803603602081101561029f57600080fd5b5035600160a060020a0316610556565b3480156102bb57600080fd5b506100f1600480360360208110156102d257600080fd5b5035600160a060020a0316610571565b3480156102ee57600080fd5b506100f1610590565b34801561030357600080fd5b506101d56004803603604081101561031a57600080fd5b50600160a060020a0381351690602001356105a3565b600160a060020a031660009081526020819052604090206002015490565b600160a060020a031660009081526020819052604090205490565b600160a060020a031660009081526020819052604090206001015490565b600160a060020a031660009081526003602052604090205490565b3360009081526001602081905260409091209081015490540381158015906103ca5750818110155b15156103d557600080fd5b336000818152600160208181526040808420909201805487019055600160a060020a03871680845260028252928290208054870190558151938452830191909152818101849052516000805160206106158339815191529181900360600190a1505050565b80151561044657600080fd5b336000818152602081815260408083206001908101805487019055600160a060020a03871680855290835292819020805486019055805193845290830191909152818101839052516000805160206106158339815191529181900360600190a15050565b600160a060020a031660009081526002602052604090206001015490565b80158015906104e65750336000908152600360205260409020548111155b15156104f157600080fd5b33600081815260036020908152604080832080548690039055600160a060020a03861680845283835292819020600201805486019055805193845290830191909152818101839052516000805160206106158339815191529181900360600190a15050565b600160a060020a031660009081526001602052604090205490565b600160a060020a03166000908152600160208190526040909120015490565b3360009081526002602052604090205490565b8015156105af57600080fd5b336000818152600260209081526040808320600101805486019055600160a060020a0386168084526003835292819020805486019055805193845290830191909152818101839052516000805160206106158339815191529181900360600190a1505056feddf252ad1be2c89b69c2b068fc378daa952ba7f163c4a11628f55a4df523b3efa165627a7a7230582096b290ced5e58b1e5e001020a843e4471ce63ff5f450089e72b51f81be67bf2a0029",
  "source": "pragma solidity >=0.4.21 <0.6.0;\n\ncontract loyalty {\n\n    struct loyaltyProviderProfile{\n        uint curr_perc;\n        uint loyalty_created;\n        uint loyalty_paid;\n    }\n\n    struct userProfile{\n        uint loyalty_rec;\n        uint loyalty_spent;\n    }\n\n    struct hungerCenterProfile{\n        uint loyalty_recv;\n        uint loyalty_spent;\n    }\n\n    struct foodProviderProfile{\n        uint curr_loyalty;\n    }\n\n    mapping (address => loyaltyProviderProfile) lpProfile;\n\n    mapping (address => userProfile) userprofile;\n\n    mapping (address => hungerCenterProfile) hcProfile;\n\n    mapping (address => foodProviderProfile) fpProfile;\n\n    event Transfer(address from , address to , uint amount);\n\n\n    function get_lp_profile_perc(address lpPK) public view returns(uint){\n        return lpProfile[lpPK].curr_perc;\n    }\n\n    function get_lp_profile_created(address lpPK) public view returns(uint){\n        return lpProfile[lpPK].loyalty_created;\n    }\n\n    function get_lp_profile_paid(address lpPK) public view returns(uint){\n        return lpProfile[lpPK].loyalty_paid;\n    }\n\n    function get_user_loyalty_recv(address userPK) public view returns(uint){\n        return userprofile[userPK].loyalty_rec;\n    }\n\n    function get_user_loyalty_spent(address userPK) public view returns(uint){\n        return userprofile[userPK].loyalty_spent;\n    }\n\n    function get_hc_loyalty_recv() public view returns(uint){\n        return hcProfile[msg.sender].loyalty_recv;\n    }\n\n    function get_hc_loyalty_spent(address hcPK) public view returns(uint){\n        return hcProfile[hcPK].loyalty_spent;\n    }\n\n    function get_fp_curr_loyalty(address fpPK) public view returns(uint){\n        return fpProfile[fpPK].curr_loyalty;\n    }\n\n\n\n    function lp2user(address userPK , uint receipt_price ) public{\n        require(receipt_price != 0);\n        lpProfile[msg.sender].loyalty_created += receipt_price;\n        userprofile[userPK].loyalty_rec += receipt_price;\n\n        emit Transfer(msg.sender , userPK , receipt_price);\n    }\n\n    function user2hc(address hcPK , uint amount) public {\n        uint curr = userprofile[msg.sender].loyalty_rec - userprofile[msg.sender].loyalty_spent;\n        require( amount != 0 && curr >= amount);\n        userprofile[msg.sender].loyalty_spent += amount;\n        hcProfile[hcPK].loyalty_recv += amount;\n\n        emit Transfer(msg.sender , hcPK , amount);\n    }\n\n    function hc2fp(address fpPK, uint amount ) public {\n        require(amount != 0);\n        hcProfile[msg.sender].loyalty_spent += amount;\n        fpProfile[fpPK].curr_loyalty += amount;\n\n        emit Transfer(msg.sender,fpPK , amount);\n    }\n\n    function fp2lp(address lpPK , uint amount)public {\n        require(amount != 0 && fpProfile[msg.sender].curr_loyalty >= amount);\n        fpProfile[msg.sender].curr_loyalty -= amount;\n        lpProfile[lpPK].loyalty_paid += amount;\n\n        emit Transfer(msg.sender , lpPK , amount);\n    }\n\n\n}\n",
  "sourcePath": "/home/amr/WebstormProjects/foodarchy/dapp/contracts/loyalty.sol",
  "compiler": {
    "name": "solc",
    "version": "0.5.0+commit.1d4f565a.Emscripten.clang"
  },
  "schemaVersion": "3.0.1",
  "updatedAt": "2019-04-20T04:02:27.126Z",
  "devdoc": {
    "methods": {}
  },
  "userdoc": {
    "methods": {}
  }
}